{
    "contractName": "AnimalHelper",
    "abi": [
        {
            "constant": false,
            "inputs": [
                {
                    "name": "_animalId",
                    "type": "uint256"
                },
                {
                    "name": "_foodName",
                    "type": "string"
                }
            ],
            "name": "feedOnFood",
            "outputs": [],
            "payable": false,
            "stateMutability": "nonpayable",
            "type": "function"
        },
        {
            "constant": false,
            "inputs": [
                {
                    "name": "_animalId",
                    "type": "uint256"
                },
                {
                    "name": "_newDna",
                    "type": "uint256"
                }
            ],
            "name": "changeDna",
            "outputs": [],
            "payable": false,
            "stateMutability": "nonpayable",
            "type": "function"
        },
        {
            "constant": true,
            "inputs": [
                {
                    "name": "_owner",
                    "type": "address"
                }
            ],
            "name": "getAnimalsByOwner",
            "outputs": [
                {
                    "name": "",
                    "type": "uint256[]"
                }
            ],
            "payable": false,
            "stateMutability": "view",
            "type": "function"
        },
        {
            "constant": true,
            "inputs": [],
            "name": "owner",
            "outputs": [
                {
                    "name": "",
                    "type": "address"
                }
            ],
            "payable": false,
            "stateMutability": "view",
            "type": "function"
        },
        {
            "constant": true,
            "inputs": [
                {
                    "name": "",
                    "type": "uint256"
                }
            ],
            "name": "animals",
            "outputs": [
                {
                    "name": "name",
                    "type": "string"
                },
                {
                    "name": "dna",
                    "type": "uint256"
                },
                {
                    "name": "level",
                    "type": "uint32"
                },
                {
                    "name": "readyTime",
                    "type": "uint32"
                }
            ],
            "payable": false,
            "stateMutability": "view",
            "type": "function"
        },
        {
            "constant": false,
            "inputs": [
                {
                    "name": "_name",
                    "type": "string"
                }
            ],
            "name": "createRandomAnimal",
            "outputs": [],
            "payable": false,
            "stateMutability": "nonpayable",
            "type": "function"
        },
        {
            "constant": false,
            "inputs": [
                {
                    "name": "_animalId",
                    "type": "uint256"
                },
                {
                    "name": "_newName",
                    "type": "string"
                }
            ],
            "name": "changeName",
            "outputs": [],
            "payable": false,
            "stateMutability": "nonpayable",
            "type": "function"
        },
        {
            "constant": true,
            "inputs": [
                {
                    "name": "",
                    "type": "uint256"
                }
            ],
            "name": "animalToOwner",
            "outputs": [
                {
                    "name": "",
                    "type": "address"
                }
            ],
            "payable": false,
            "stateMutability": "view",
            "type": "function"
        },
        {
            "constant": false,
            "inputs": [
                {
                    "name": "newOwner",
                    "type": "address"
                }
            ],
            "name": "transferOwnership",
            "outputs": [],
            "payable": false,
            "stateMutability": "nonpayable",
            "type": "function"
        },
        {
            "anonymous": false,
            "inputs": [
                {
                    "indexed": false,
                    "name": "animalId",
                    "type": "uint256"
                },
                {
                    "indexed": false,
                    "name": "name",
                    "type": "string"
                },
                {
                    "indexed": false,
                    "name": "dna",
                    "type": "uint256"
                }
            ],
            "name": "NewAnimal",
            "type": "event"
        },
        {
            "anonymous": false,
            "inputs": [
                {
                    "indexed": true,
                    "name": "previousOwner",
                    "type": "address"
                },
                {
                    "indexed": false,
                    "name": "indexednewOwner",
                    "type": "address"
                }
            ],
            "name": "OwnershipTransferred",
            "type": "event"
        }
    ],
    "bytecode": "60806040526010600155662386f26fc10000600255600a60035560008054600160a060020a03191633179055610c988061003a6000396000f3006080604052600436106100985763ffffffff7c01000000000000000000000000000000000000000000000000000000006000350416632f1303a3811461009d5780635faf2880146100fd5780636485be27146101185780638da5cb5b14610189578063998dd3ca146101ba5780639abfb23e14610277578063c39cbef1146102d0578063d81c513a146102f4578063f2fde38b1461030c575b600080fd5b3480156100a957600080fd5b5060408051602060046024803582810135601f81018590048502860185019096528585526100fb95833595369560449491939091019190819084018382808284375094975061032d9650505050505050565b005b34801561010957600080fd5b506100fb600435602435610349565b34801561012457600080fd5b50610139600160a060020a03600435166103cf565b60408051602080825283518183015283519192839290830191858101910280838360005b8381101561017557818101518382015260200161015d565b505050509050019250505060405180910390f35b34801561019557600080fd5b5061019e61048d565b60408051600160a060020a039092168252519081900360200190f35b3480156101c657600080fd5b506101d260043561049c565b60405180806020018581526020018463ffffffff1663ffffffff1681526020018363ffffffff1663ffffffff168152602001828103825286818151815260200191508051906020019080838360005b83811015610239578181015183820152602001610221565b50505050905090810190601f1680156102665780820380516001836020036101000a031916815260200191505b509550505050505060405180910390f35b34801561028357600080fd5b506040805160206004803580820135601f81018490048402850184019095528484526100fb94369492936024939284019190819084018382808284375094975061056c9650505050505050565b3480156102dc57600080fd5b506100fb60048035906024803590810191013561059f565b34801561030057600080fd5b5061019e60043561062d565b34801561031857600080fd5b506100fb600160a060020a0360043516610648565b6000610338826106e9565b905061034483826107b5565b505050565b6014828160048281548110151561035c57fe5b600091825260209091206002600390920201015463ffffffff16101561038157600080fd5b600084815260056020526040902054600160a060020a031633146103a457600080fd5b826004858154811015156103b457fe5b90600052602060002090600302016001018190555050505050565b6060806000806006600086600160a060020a0316600160a060020a0316815260200190815260200160002054604051908082528060200260200182016040528015610424578160200160208202803883390190505b50925060009150600090505b60045481101561048457600081815260056020526040902054600160a060020a038681169116141561047c5780838381518110151561046b57fe5b602090810290910101526001909101905b600101610430565b50909392505050565b600054600160a060020a031681565b60048054829081106104aa57fe5b60009182526020918290206003919091020180546040805160026001841615610100026000190190931692909204601f8101859004850283018501909152808252919350918391908301828280156105435780601f1061051857610100808354040283529160200191610543565b820191906000526020600020905b81548152906001019060200180831161052657829003601f168201915b50505050600183015460029093015491929163ffffffff80821692506401000000009091041684565b336000908152600660205260408120541561058657600080fd5b61058f826108a8565b905061059b8282610989565b5050565b600283816004828154811015156105b257fe5b600091825260209091206002600390920201015463ffffffff1610156105d757600080fd5b600085815260056020526040902054600160a060020a031633146105fa57600080fd5b838360048781548110151561060b57fe5b600091825260209091206106259360039092020191610b63565b505050505050565b600560205260009081526040902054600160a060020a031681565b600054600160a060020a0316331461065f57600080fd5b600160a060020a038116151561067457600080fd5b60005460408051600160a060020a038481168252915191909216917f8be0079c531659141344cd1fd0a4f28419497f9722a3daafe3b4186f6b6457e0919081900360200190a26000805473ffffffffffffffffffffffffffffffffffffffff1916600160a060020a0392909216919091179055565b600080826040516020018082805190602001908083835b6020831061071f5780518252601f199092019160209182019101610700565b6001836020036101000a0380198251168184511680821785525050505050509050019150506040516020818303038152906040526040518082805190602001908083835b602083106107825780518252601f199092019160209182019101610763565b5181516020939093036101000a600019018019909116921691909117905260405192018290039091209695505050505050565b6000828152600560205260408120548190600160a060020a031633146107da57600080fd5b60048054859081106107e857fe5b9060005260206000209060030201915061080182610b4a565b151561080c57600080fd5b6002548381151561081957fe5b06925060028383600101540181151561082e57fe5b049050606481068103606301905061087b6040805190810160405280600681526020017f4e6f2d6f6e65000000000000000000000000000000000000000000000000000081525082610989565b60035442018260020160046101000a81548163ffffffff021916908363ffffffff16021790555050505050565b600080826040516020018082805190602001908083835b602083106108de5780518252601f1990920191602091820191016108bf565b6001836020036101000a0380198251168184511680821785525050505050509050019150506040516020818303038152906040526040518082805190602001908083835b602083106109415780518252601f199092019160209182019101610922565b6001836020036101000a03801982511681845116808217855250505050505090500191505060405180910390206001900490506002548181151561098157fe5b069392505050565b60408051608081018252838152602080820184905260019282018390524263ffffffff166060830152600480548085018083556000928352845180519396959194919360039093027f8a35acfbc15ff81a39ae7d344fd709f28e8600b4aa8c65c6b64bfe7fe36bd19b0192610a019284920190610be1565b506020828101516001808401919091556040808501516002909401805460609687015163ffffffff9081166401000000000267ffffffff00000000199190971663ffffffff1990921691909117169490941790935594909303600081815260058552828120805473ffffffffffffffffffffffffffffffffffffffff1916339081179091558152600685528281208054909601909555815181815291820187905281840183815288519383019390935287519095507f07be46eb2dba0b4dd932cd8c8cf7a4471478b8e52413bb8e9e88580596866431948694899489949390926080850192870191908190849084905b83811015610b09578181015183820152602001610af1565b50505050905090810190601f168015610b365780820380516001836020036101000a031916815260200191505b5094505050505060405180910390a1505050565b600201544264010000000090910463ffffffff16111590565b828054600181600116156101000203166002900490600052602060002090601f016020900481019282601f10610ba45782800160ff19823516178555610bd1565b82800160010185558215610bd1579182015b82811115610bd1578235825591602001919060010190610bb6565b50610bdd929150610c4f565b5090565b828054600181600116156101000203166002900490600052602060002090601f016020900481019282601f10610c2257805160ff1916838001178555610bd1565b82800160010185558215610bd1579182015b82811115610bd1578251825591602001919060010190610c34565b610c6991905b80821115610bdd5760008155600101610c55565b905600a165627a7a72305820676d09d68110904bbb047ad5eac3961a1fbf9657ea92f6122f2af409e5df79e20029",
    "sourcePath": "/home/went/learn/solidity/NethereumCodeGen/AnimalInCubators/Contracts/AnimalHelper.sol",
    "compiler": {
        "name": "solc",
        "version": "0.4.26+commit.4563c3fc"
    },
    "functionHashes": {
        "animalToOwner(uint256)": "d81c513a",
        "animals(uint256)": "998dd3ca",
        "changeDna(uint256,uint256)": "5faf2880",
        "changeName(uint256,string)": "c39cbef1",
        "createRandomAnimal(string)": "9abfb23e",
        "feedOnFood(uint256,string)": "2f1303a3",
        "getAnimalsByOwner(address)": "6485be27",
        "owner()": "8da5cb5b",
        "transferOwnership(address)": "f2fde38b"
    },
    "gasEstimates": {
        "creation": {
            "codeDepositCost": "644800",
            "executionCost": "80962",
            "totalCost": "725762"
        },
        "external": {
            "animalToOwner(uint256)": "763",
            "animals(uint256)": "infinite",
            "changeDna(uint256,uint256)": "21402",
            "changeName(uint256,string)": "infinite",
            "createRandomAnimal(string)": "infinite",
            "feedOnFood(uint256,string)": "infinite",
            "getAnimalsByOwner(address)": "infinite",
            "owner()": "603",
            "transferOwnership(address)": "22830"
        }
    }
}